:080000000C946E000C9400004A
:100008000C9400000C9400000C9400000C94000068
:100018000C9400000C9400000C9400000C94000058
:100028000C9400000C9400000C9400000C94000048
:100038000C9400000C9400000C9400000C94000038
:100048000C9400000C9400000C9400000C94000028
:100058000C9400000C9400000C9400000C94000018
:100068000C9400000C9400001027E80364000A00B8
:1000780001000010000110000100245053544D539A
:100088004156455041520A00245053544D5345544B
:100098005041522C313130322C382A0A0000486540
:1000A8006C6C6F5F576F726C6421210A3132333484
:1000B80035363738392E000080C001002D4E414EAC
:1000C80000494E4600000200B402C0000100B80218
:1000D800C2000000F894EE27ECBBF1E0FBBFEBBFD9
:1000E800E5BFE6BFF8E1F1BDE1BD8DE0A2E0BB27C9
:1000F800ED938A95E9F780E094E0A0E0B1E0ED9314
:100108000197E9F7EEECF0E085919591009761F0A1
:10011800A591B59105901590BF01F00105900D923C
:100128000197E1F7FB01F0CFEFEFEDBFE4E0EEBFA1
:10013800C0E0D2E00C942801F894E0E8E093610074
:10014800E0E0E0936100EBBBE5EFEABBE0E0E8BB91
:10015800E7BBE5BBE4BBE2BBE1BBE7B9E7E0E6B977
:10016800E0E0E3BFE2BFE1BFEFBDEEBDEDBDECBD3A
:10017800E5BDE4BDEBBDEABDE9BDE8BDE6BDE7BD53
:10018800E3BDE2BDE0938B00E0938A00E093890031
:10019800E0938800E0938100E0938000E09387007B
:1001A800E0938600E0938500E0938400E5BFE6BF16
:1001B800E9BFE0937D00EBB9E8E1EAB9E6E8E0BD24
:1001C800E0E0E0BDE3E0E9B9E0E0E2B9E8E1E1B9A7
:1001D800E6E8ECBFE0E0ECBFE3E0E0B9E0E8E8B96E
:1001E800E0E0EDB9A0E10E940202789408951A9324
:1001F8000A93E2B11E2FE078E1F303B1103011F059
:10020800E02F01C0F6CF0991199108951A9311B101
:10021800159BFECFE1B1E776E1B9E9E0E7BBE1E0A4
:10022800E8BBA1E0B0E00E943B02E0E0E8BBAFE041
:10023800B0E00E943B02E1E0E8BBA9E1B0E00E9427
:100248003B0211B919910895A39783E2A0E0B0E0A9
:10025800E2E8F0E00E944502F8946EDFD7DF0E94E2
:10026800B101A6EAB0E00E94DE01A0EDB7E00E946D
:100278003B020E94B10100E010E00032E0E01E07FE
:100288009CF4F801E050FE4FFF93EF93B0DFAF917D
:10029800BF91EC93A0E0B2E0A00FB11FAC910E9417
:1002A800C4010F5F1F4FE9CFA8EEB3E00E943B02E5
:1002B8000E94B101E0CF0000FECFFFE0FA95F1F710
:1002C8000895AAB3AF70AABBD99AD898F6DFDA9A7C
:1002D800F4DFA9B3DA98F1DFDA9AEFDFDA98A7FD4D
:1002E800F5CF0895A07FAB2BABBBDA9A0E946101D2
:1002F800DA980E9461010895AA93D998AAB3A76FC2
:10030800AABBBBB3BF70A881EDDFA881A295EADFC5
:10031800D99A0C943902DA9A0E946101E9B3DA9801
:100328000E946101E07F08950E946101F4DFAE2F11
:10033800F2DFD998E295EA2B0895AA930E94650105
:10034800E881F0E0EC54FD4FE081A981AE0F0E94F6
:10035800800159804880229608950E946501A2E094
:100368000E9480010E946501ACE00E9480010E9409
:100378006501A1E00E948001E0E04E2E5E2E089506
:10038800AA93EF93FF93A8816894AA3019F0E89490
:10039800571430F04394E0E0EA93A42DCEDF36F012
:1003A80053948FDFD89AA8810E948001FF91EF9122
:1003B8000C943902BA93AA931A93E981FA81319677
:1003C800E983FA833197E4911E2FE03019F0A12FC9
:1003D800D7DFF3CF188123960895AA27BB27119753
:1003E800F1F70895AA93D998AAB3A76FAABBBBB38C
:1003F800BF70A8810E947601D99A37C0AA93DA986B
:10040800D8987880E881E058E093B602E881E05413
:10041800E093B702E2DFA0E3E5DFDFDFA0E3E2DF9E
:10042800DCDFA0E3DFDFD9DFA0E2DCDFD6DFA8E294
:100438000E948001D2DFA4E00E948001CEDFA5E8FF
:100448000E948001CADFAAB3AF70AABBD99A0E94E2
:100458009801E53011F0E0E008C00E946501A6E0CF
:100468000E9480010E94B101E1E021960895109652
:1004780039F080ED97E00197F1F7A8951197C9F742
:100488000895AC0FBD1F05900D928A95E1F7089568
:00000001FF
